{
  "transactions": [
    {
      "hash": "0x02ce4d4bfa36779406e5794b404f9c36f10143f28b6ec5381230c1d681bba0dc",
      "transactionType": "CALL",
      "contractName": null,
      "contractAddress": "0x413d15afe510cd1003540e8ef57a29ef9a086efc",
      "function": "adminChangeCooldownPeriod(uint256)",
      "arguments": [
        "60"
      ],
      "transaction": {
        "from": "0xd6f28152c40ee0a5e2ccf73824120bc48e2df7cb",
        "to": "0x413d15afe510cd1003540e8ef57a29ef9a086efc",
        "gas": "0x9c88",
        "value": "0x0",
        "input": "0xfc415a40000000000000000000000000000000000000000000000000000000000000003c",
        "nonce": "0x1",
        "chainId": "0x2105"
      },
      "additionalContracts": [],
      "isFixedGasLimit": false
    }
  ],
  "receipts": [
    {
      "status": "0x1",
      "cumulativeGasUsed": "0x8829f6",
      "logs": [],
      "logsBloom": "0x00000000000000000000000000000000000000000000000000000000000000000000000000000000000000000000000000000000000000000000000000000000000000000000000000000000000000000000000000000000000000000000000000000000000000000000000000000000000000000000000000000000000000000000000000000000000000000000000000000000000000000000000000000000000000000000000000000000000000000000000000000000000000000000000000000000000000000000000000000000000000000000000000000000000000000000000000000000000000000000000000000000000000000000000000000000",
      "type": "0x2",
      "transactionHash": "0x02ce4d4bfa36779406e5794b404f9c36f10143f28b6ec5381230c1d681bba0dc",
      "transactionIndex": "0x32",
      "blockHash": "0x7dcd699cdc6c6b484028cab44c8ba43ef3b146625cf8a4326ace6dba2fd6694b",
      "blockNumber": "0x21a61f3",
      "gasUsed": "0x7154",
      "effectiveGasPrice": "0x1a7c5e",
      "from": "0xd6f28152c40ee0a5e2ccf73824120bc48e2df7cb",
      "to": "0x413d15afe510cd1003540e8ef57a29ef9a086efc",
      "contractAddress": null,
      "l1BaseFeeScalar": "0x8dd",
      "l1BlobBaseFee": "0x1",
      "l1BlobBaseFeeScalar": "0x101c12",
      "l1Fee": "0xbec950b7",
      "l1GasPrice": "0x348d6cc5",
      "l1GasUsed": "0x640"
    }
  ],
  "libraries": [],
  "pending": [],
  "returns": {},
  "timestamp": 1757356233011,
  "chain": 8453,
  "commit": "ce85ae2"
}