{
  "transactions": [
    {
      "hash": "0x845aec8fac05615282ef19a003493ccc25e1928bded773b7805c36e962537984",
      "transactionType": "CALL",
      "contractName": null,
      "contractAddress": "0x413d15afe510cd1003540e8ef57a29ef9a086efc",
      "function": "withdraw(uint256)",
      "arguments": [
        "0"
      ],
      "transaction": {
        "from": "0xd6f28152c40ee0a5e2ccf73824120bc48e2df7cb",
        "to": "0x413d15afe510cd1003540e8ef57a29ef9a086efc",
        "gas": "0x165c7",
        "value": "0x0",
        "input": "0x2e1a7d4d0000000000000000000000000000000000000000000000000000000000000000",
        "nonce": "0x5",
        "chainId": "0x2105"
      },
      "additionalContracts": [],
      "isFixedGasLimit": false
    }
  ],
  "receipts": [
    {
      "status": "0x1",
      "cumulativeGasUsed": "0x285bb38",
      "logs": [
        {
          "address": "0x8dd524a86195a6ef95304e7f0dd9c405a2e78859",
          "topics": [
            "0xddf252ad1be2c89b69c2b068fc378daa952ba7f163c4a11628f55a4df523b3ef",
            "0x000000000000000000000000413d15afe510cd1003540e8ef57a29ef9a086efc",
            "0x000000000000000000000000d6f28152c40ee0a5e2ccf73824120bc48e2df7cb"
          ],
          "data": "0x0000000000000000000000000000000000000000000000008ac7230489e80000",
          "blockHash": "0xd529f70aeedb7c60b1ae005dfb186d35e4cedb52718482dc77e3ae23a43bc2e2",
          "blockNumber": "0x21a66a7",
          "blockTimestamp": "0x68bf2a31",
          "transactionHash": "0x845aec8fac05615282ef19a003493ccc25e1928bded773b7805c36e962537984",
          "transactionIndex": "0x114",
          "logIndex": "0x24c",
          "removed": false
        },
        {
          "address": "0x413d15afe510cd1003540e8ef57a29ef9a086efc",
          "topics": [
            "0x02f25270a4d87bea75db541cdfe559334a275b4a233520ed6c0a2429667cca94",
            "0x000000000000000000000000d6f28152c40ee0a5e2ccf73824120bc48e2df7cb"
          ],
          "data": "0x0000000000000000000000000000000000000000000000008ac7230489e8000000000000000000000000000000000000000000000000000000000000000000000000000000000000000000000000000000000000000000000000000068bf2a31",
          "blockHash": "0xd529f70aeedb7c60b1ae005dfb186d35e4cedb52718482dc77e3ae23a43bc2e2",
          "blockNumber": "0x21a66a7",
          "blockTimestamp": "0x68bf2a31",
          "transactionHash": "0x845aec8fac05615282ef19a003493ccc25e1928bded773b7805c36e962537984",
          "transactionIndex": "0x114",
          "logIndex": "0x24d",
          "removed": false
        }
      ],
      "logsBloom": "0x00000000040000000000000000020000000000000000002002000000000000000000000000000000100000000000000000000000000080000200000000000000000000000000000000000008000000000000000000000000000000100000000000000000000000000000000000000000008200000080000000000010000800000000000000000000000000000000000000000000000000000000000000010000000000000000000000000000000000000000080000000000000000000000000000000002000000000000000000000000000000000000000000000000000000000000000000000000000000000000000000000000000000000000020000000000",
      "type": "0x2",
      "transactionHash": "0x845aec8fac05615282ef19a003493ccc25e1928bded773b7805c36e962537984",
      "transactionIndex": "0x114",
      "blockHash": "0xd529f70aeedb7c60b1ae005dfb186d35e4cedb52718482dc77e3ae23a43bc2e2",
      "blockNumber": "0x21a66a7",
      "gasUsed": "0x10307",
      "effectiveGasPrice": "0x2e0b46",
      "from": "0xd6f28152c40ee0a5e2ccf73824120bc48e2df7cb",
      "to": "0x413d15afe510cd1003540e8ef57a29ef9a086efc",
      "contractAddress": null,
      "l1BaseFeeScalar": "0x8dd",
      "l1BlobBaseFee": "0x1",
      "l1BlobBaseFeeScalar": "0x101c12",
      "l1Fee": "0x80036531",
      "l1GasPrice": "0x2342effc",
      "l1GasUsed": "0x640"
    }
  ],
  "libraries": [],
  "pending": [],
  "returns": {},
  "timestamp": 1757358642462,
  "chain": 8453,
  "commit": "1f04f68"
}