{
  "transactions": [
    {
      "hash": "0xd03035c66f7d064ddb71c1e93be64036dbbe5656c6f86da4bf8ba2513c8560ac",
      "transactionType": "CALL",
      "contractName": null,
      "contractAddress": "0x8dd524a86195a6ef95304e7f0dd9c405a2e78859",
      "function": "approve(address,uint256)",
      "arguments": [
        "0x413D15aFe510cD1003540E8EF57A29eF9a086Efc",
        "10000000000000000000"
      ],
      "transaction": {
        "from": "0xd6f28152c40ee0a5e2ccf73824120bc48e2df7cb",
        "to": "0x8dd524a86195a6ef95304e7f0dd9c405a2e78859",
        "gas": "0x106ce",
        "value": "0x0",
        "input": "0x095ea7b3000000000000000000000000413d15afe510cd1003540e8ef57a29ef9a086efc0000000000000000000000000000000000000000000000008ac7230489e80000",
        "nonce": "0x2",
        "chainId": "0x2105"
      },
      "additionalContracts": [],
      "isFixedGasLimit": false
    },
    {
      "hash": "0x32863281899122faecc4f179c794e5f702890420039fcace66459fe381e25fa9",
      "transactionType": "CALL",
      "contractName": null,
      "contractAddress": "0x413d15afe510cd1003540e8ef57a29ef9a086efc",
      "function": "deposit(uint256)",
      "arguments": [
        "10000000000000000000"
      ],
      "transaction": {
        "from": "0xd6f28152c40ee0a5e2ccf73824120bc48e2df7cb",
        "to": "0x413d15afe510cd1003540e8ef57a29ef9a086efc",
        "gas": "0x37374",
        "value": "0x0",
        "input": "0xb6b55f250000000000000000000000000000000000000000000000008ac7230489e80000",
        "nonce": "0x3",
        "chainId": "0x2105"
      },
      "additionalContracts": [],
      "isFixedGasLimit": false
    }
  ],
  "receipts": [
    {
      "status": "0x1",
      "cumulativeGasUsed": "0x1f2ab2b",
      "logs": [
        {
          "address": "0x8dd524a86195a6ef95304e7f0dd9c405a2e78859",
          "topics": [
            "0x8c5be1e5ebec7d5bd14f71427d1e84f3dd0314c0f7b2291e5b200ac8c7c3b925",
            "0x000000000000000000000000d6f28152c40ee0a5e2ccf73824120bc48e2df7cb",
            "0x000000000000000000000000413d15afe510cd1003540e8ef57a29ef9a086efc"
          ],
          "data": "0x0000000000000000000000000000000000000000000000008ac7230489e80000",
          "blockHash": "0xd7b2b061413e233749294c6580c1abe35cab3ab99fa79e8c71f315fe6eed025b",
          "blockNumber": "0x21a6556",
          "blockTimestamp": "0x68bf278f",
          "transactionHash": "0xd03035c66f7d064ddb71c1e93be64036dbbe5656c6f86da4bf8ba2513c8560ac",
          "transactionIndex": "0x79",
          "logIndex": "0x552",
          "removed": false
        }
      ],
      "logsBloom": "0x00000000000000000000000000020000000000000000002000000000000000000000000000000000100000000000000000000000000080000200000000200000000000000000000000000000000000000000000000000000000000000000000000000000000000000000000000000000000200000080000000000000000800000000000000000000000000000000000000000000000000000000000000010000020000000000000000000000000000000000000000000000000000000000000000000000000000000000000000000000000000000000000000000000000000000010000000000000000000000000000000000000000000000000000000000000",
      "type": "0x2",
      "transactionHash": "0xd03035c66f7d064ddb71c1e93be64036dbbe5656c6f86da4bf8ba2513c8560ac",
      "transactionIndex": "0x79",
      "blockHash": "0xd7b2b061413e233749294c6580c1abe35cab3ab99fa79e8c71f315fe6eed025b",
      "blockNumber": "0x21a6556",
      "gasUsed": "0xbe45",
      "effectiveGasPrice": "0x264511",
      "from": "0xd6f28152c40ee0a5e2ccf73824120bc48e2df7cb",
      "to": "0x8dd524a86195a6ef95304e7f0dd9c405a2e78859",
      "contractAddress": null,
      "l1BaseFeeScalar": "0x8dd",
      "l1BlobBaseFee": "0x1",
      "l1BlobBaseFeeScalar": "0x101c12",
      "l1Fee": "0x7e1396f7",
      "l1GasPrice": "0x22ba5def",
      "l1GasUsed": "0x640"
    },
    {
      "status": "0x1",
      "cumulativeGasUsed": "0x1f5073e",
      "logs": [
        {
          "address": "0x8dd524a86195a6ef95304e7f0dd9c405a2e78859",
          "topics": [
            "0x8c5be1e5ebec7d5bd14f71427d1e84f3dd0314c0f7b2291e5b200ac8c7c3b925",
            "0x000000000000000000000000d6f28152c40ee0a5e2ccf73824120bc48e2df7cb",
            "0x000000000000000000000000413d15afe510cd1003540e8ef57a29ef9a086efc"
          ],
          "data": "0x0000000000000000000000000000000000000000000000000000000000000000",
          "blockHash": "0xd7b2b061413e233749294c6580c1abe35cab3ab99fa79e8c71f315fe6eed025b",
          "blockNumber": "0x21a6556",
          "blockTimestamp": "0x68bf278f",
          "transactionHash": "0x32863281899122faecc4f179c794e5f702890420039fcace66459fe381e25fa9",
          "transactionIndex": "0x7a",
          "logIndex": "0x553",
          "removed": false
        },
        {
          "address": "0x8dd524a86195a6ef95304e7f0dd9c405a2e78859",
          "topics": [
            "0xddf252ad1be2c89b69c2b068fc378daa952ba7f163c4a11628f55a4df523b3ef",
            "0x000000000000000000000000d6f28152c40ee0a5e2ccf73824120bc48e2df7cb",
            "0x000000000000000000000000413d15afe510cd1003540e8ef57a29ef9a086efc"
          ],
          "data": "0x0000000000000000000000000000000000000000000000008ac7230489e80000",
          "blockHash": "0xd7b2b061413e233749294c6580c1abe35cab3ab99fa79e8c71f315fe6eed025b",
          "blockNumber": "0x21a6556",
          "blockTimestamp": "0x68bf278f",
          "transactionHash": "0x32863281899122faecc4f179c794e5f702890420039fcace66459fe381e25fa9",
          "transactionIndex": "0x7a",
          "logIndex": "0x554",
          "removed": false
        },
        {
          "address": "0x413d15afe510cd1003540e8ef57a29ef9a086efc",
          "topics": [
            "0x36af321ec8d3c75236829c5317affd40ddb308863a1236d2d277a4025cccee1e",
            "0x000000000000000000000000d6f28152c40ee0a5e2ccf73824120bc48e2df7cb"
          ],
          "data": "0x0000000000000000000000000000000000000000000000008ac7230489e8000000000000000000000000000000000000000000000000000000000000000000000000000000000000000000000000000000000000000000000000000068bf278f",
          "blockHash": "0xd7b2b061413e233749294c6580c1abe35cab3ab99fa79e8c71f315fe6eed025b",
          "blockNumber": "0x21a6556",
          "blockTimestamp": "0x68bf278f",
          "transactionHash": "0x32863281899122faecc4f179c794e5f702890420039fcace66459fe381e25fa9",
          "transactionIndex": "0x7a",
          "logIndex": "0x555",
          "removed": false
        }
      ],
      "logsBloom": "0x00000000040000000000000000020000000000000000002000000000000000000000002000000000100000000000000000000000000080000200000000200000000000000000000000000208000000000000000000000000000000000000000000000000000000000000000000000000008200000080000000000010000800000000000000000000000000000000000000000000000000000000000000010000020000000000000000000000000000000000080000000000000000000000000000000002000000000000000000000000000000000000000000000000000000000010000000000000000000000000000000000000000000000000000080000000",
      "type": "0x2",
      "transactionHash": "0x32863281899122faecc4f179c794e5f702890420039fcace66459fe381e25fa9",
      "transactionIndex": "0x7a",
      "blockHash": "0xd7b2b061413e233749294c6580c1abe35cab3ab99fa79e8c71f315fe6eed025b",
      "blockNumber": "0x21a6556",
      "gasUsed": "0x25c13",
      "effectiveGasPrice": "0x264511",
      "from": "0xd6f28152c40ee0a5e2ccf73824120bc48e2df7cb",
      "to": "0x413d15afe510cd1003540e8ef57a29ef9a086efc",
      "contractAddress": null,
      "l1BaseFeeScalar": "0x8dd",
      "l1BlobBaseFee": "0x1",
      "l1BlobBaseFeeScalar": "0x101c12",
      "l1Fee": "0x7e1396f7",
      "l1GasPrice": "0x22ba5def",
      "l1GasUsed": "0x640"
    }
  ],
  "libraries": [],
  "pending": [],
  "returns": {},
  "timestamp": 1757357967587,
  "chain": 8453,
  "commit": "1f04f68"
}