{
  "transactions": [
    {
      "hash": "0x82af1d7fe422e2417e8cfe4fa3a404a04c46e36e2bfffcab2ec7f4fa3bf7a167",
      "transactionType": "CALL",
      "contractName": null,
      "contractAddress": "0x413d15afe510cd1003540e8ef57a29ef9a086efc",
      "function": "initiateWithdraw(uint256)",
      "arguments": [
        "0"
      ],
      "transaction": {
        "from": "0xd6f28152c40ee0a5e2ccf73824120bc48e2df7cb",
        "to": "0x413d15afe510cd1003540e8ef57a29ef9a086efc",
        "gas": "0x1a23c",
        "value": "0x0",
        "input": "0x7e108d520000000000000000000000000000000000000000000000000000000000000000",
        "nonce": "0x4",
        "chainId": "0x2105"
      },
      "additionalContracts": [],
      "isFixedGasLimit": false
    }
  ],
  "receipts": [
    {
      "status": "0x1",
      "cumulativeGasUsed": "0x20877a8",
      "logs": [
        {
          "address": "0x413d15afe510cd1003540e8ef57a29ef9a086efc",
          "topics": [
            "0x0990a0752ef3c90ec397bbe08059af5f4376cae66e77f9376fbc63e3ae091530",
            "0x000000000000000000000000d6f28152c40ee0a5e2ccf73824120bc48e2df7cb"
          ],
          "data": "0x00000000000000000000000000000000000000000000000000000000000000000000000000000000000000000000000000000000000000000000000068bf29c70000000000000000000000000000000000000000000000000000000068bf298b",
          "blockHash": "0xf1293d533eb1334719a70a7df973add64a8533d5578badbc3c9134b9cd571337",
          "blockNumber": "0x21a6654",
          "blockTimestamp": "0x68bf298b",
          "transactionHash": "0x82af1d7fe422e2417e8cfe4fa3a404a04c46e36e2bfffcab2ec7f4fa3bf7a167",
          "transactionIndex": "0xab",
          "logIndex": "0x193",
          "removed": false
        }
      ],
      "logsBloom": "0x00000000040000000000000000000000000000000000000000000000000800000000000000000000000000000000000000000000000000000200000000000000000000000000000000000000000000000000000400000000000000000000000000000000000000000000000000000000008200000000000000000000000800000000000000000000000000000000000010000000000000000000000000000000000000000000000000000000000000000000080000000000000000000000000000000000000000000000000000000000000000000000000000000000000000000000000000000000000000000000000000000000000000000000000000000000",
      "type": "0x2",
      "transactionHash": "0x82af1d7fe422e2417e8cfe4fa3a404a04c46e36e2bfffcab2ec7f4fa3bf7a167",
      "transactionIndex": "0xab",
      "blockHash": "0xf1293d533eb1334719a70a7df973add64a8533d5578badbc3c9134b9cd571337",
      "blockNumber": "0x21a6654",
      "gasUsed": "0x11df9",
      "effectiveGasPrice": "0x2b0914",
      "from": "0xd6f28152c40ee0a5e2ccf73824120bc48e2df7cb",
      "to": "0x413d15afe510cd1003540e8ef57a29ef9a086efc",
      "contractAddress": null,
      "l1BaseFeeScalar": "0x8dd",
      "l1BlobBaseFee": "0x1",
      "l1BlobBaseFeeScalar": "0x101c12",
      "l1Fee": "0x73a56b21",
      "l1GasPrice": "0x1fdadd16",
      "l1GasUsed": "0x640"
    }
  ],
  "libraries": [],
  "pending": [],
  "returns": {},
  "timestamp": 1757358475776,
  "chain": 8453,
  "commit": "1f04f68"
}